{
  "address": "0xa1373Bc11Ae2Bf43DA5D2B944C8f01D2053FeaCf",
  "abi": [
    {
      "inputs": [
        {
          "internalType": "uint8",
          "name": "_localDecimals",
          "type": "uint8"
        },
        {
          "internalType": "address",
          "name": "_endpoint",
          "type": "address"
        },
        {
          "internalType": "address",
          "name": "_owner",
          "type": "address"
        }
      ],
      "stateMutability": "nonpayable",
      "type": "constructor"
    },
    {
      "inputs": [
        {
          "internalType": "address",
          "name": "target",
          "type": "address"
        }
      ],
      "name": "AddressEmptyCode",
      "type": "error"
    },
    {
      "inputs": [
        {
          "internalType": "address",
          "name": "account",
          "type": "address"
        }
      ],
      "name": "AddressInsufficientBalance",
      "type": "error"
    },
    {
      "inputs": [],
      "name": "FailedInnerCall",
      "type": "error"
    },
    {
      "inputs": [],
      "name": "InvalidDelegate",
      "type": "error"
    },
    {
      "inputs": [],
      "name": "InvalidEndpointCall",
      "type": "error"
    },
    {
      "inputs": [],
      "name": "LzTokenUnavailable",
      "type": "error"
    },
    {
      "inputs": [
        {
          "internalType": "uint32",
          "name": "eid",
          "type": "uint32"
        }
      ],
      "name": "NoPeer",
      "type": "error"
    },
    {
      "inputs": [
        {
          "internalType": "uint256",
          "name": "msgValue",
          "type": "uint256"
        }
      ],
      "name": "NotEnoughNative",
      "type": "error"
    },
    {
      "inputs": [
        {
          "internalType": "address",
          "name": "addr",
          "type": "address"
        }
      ],
      "name": "OnlyEndpoint",
      "type": "error"
    },
    {
      "inputs": [
        {
          "internalType": "uint32",
          "name": "eid",
          "type": "uint32"
        },
        {
          "internalType": "bytes32",
          "name": "sender",
          "type": "bytes32"
        }
      ],
      "name": "OnlyPeer",
      "type": "error"
    },
    {
      "inputs": [
        {
          "internalType": "address",
          "name": "owner",
          "type": "address"
        }
      ],
      "name": "OwnableInvalidOwner",
      "type": "error"
    },
    {
      "inputs": [
        {
          "internalType": "address",
          "name": "account",
          "type": "address"
        }
      ],
      "name": "OwnableUnauthorizedAccount",
      "type": "error"
    },
    {
      "inputs": [
        {
          "internalType": "address",
          "name": "token",
          "type": "address"
        }
      ],
      "name": "SafeERC20FailedOperation",
      "type": "error"
    },
    {
      "anonymous": false,
      "inputs": [
        {
          "indexed": true,
          "internalType": "address",
          "name": "previousOwner",
          "type": "address"
        },
        {
          "indexed": true,
          "internalType": "address",
          "name": "newOwner",
          "type": "address"
        }
      ],
      "name": "OwnershipTransferred",
      "type": "event"
    },
    {
      "anonymous": false,
      "inputs": [
        {
          "indexed": false,
          "internalType": "uint32",
          "name": "eid",
          "type": "uint32"
        },
        {
          "indexed": false,
          "internalType": "bytes32",
          "name": "peer",
          "type": "bytes32"
        }
      ],
      "name": "PeerSet",
      "type": "event"
    },
    {
      "anonymous": false,
      "inputs": [
        {
          "indexed": true,
          "internalType": "uint32",
          "name": "srcEid",
          "type": "uint32"
        },
        {
          "indexed": true,
          "internalType": "bytes32",
          "name": "sender",
          "type": "bytes32"
        },
        {
          "indexed": false,
          "internalType": "bytes32",
          "name": "guid",
          "type": "bytes32"
        },
        {
          "indexed": false,
          "internalType": "address",
          "name": "receiver",
          "type": "address"
        },
        {
          "indexed": false,
          "internalType": "uint256",
          "name": "amount",
          "type": "uint256"
        },
        {
          "indexed": false,
          "internalType": "address",
          "name": "executor",
          "type": "address"
        },
        {
          "indexed": false,
          "internalType": "bytes",
          "name": "extraData",
          "type": "bytes"
        }
      ],
      "name": "TokenReceived",
      "type": "event"
    },
    {
      "anonymous": false,
      "inputs": [
        {
          "indexed": true,
          "internalType": "uint32",
          "name": "dstEid",
          "type": "uint32"
        },
        {
          "indexed": true,
          "internalType": "address",
          "name": "from",
          "type": "address"
        },
        {
          "indexed": true,
          "internalType": "bytes32",
          "name": "receiver",
          "type": "bytes32"
        },
        {
          "indexed": false,
          "internalType": "uint256",
          "name": "amount",
          "type": "uint256"
        },
        {
          "indexed": false,
          "internalType": "bytes",
          "name": "payload",
          "type": "bytes"
        }
      ],
      "name": "TokenSent",
      "type": "event"
    },
    {
      "inputs": [
        {
          "components": [
            {
              "internalType": "uint32",
              "name": "srcEid",
              "type": "uint32"
            },
            {
              "internalType": "bytes32",
              "name": "sender",
              "type": "bytes32"
            },
            {
              "internalType": "uint64",
              "name": "nonce",
              "type": "uint64"
            }
          ],
          "internalType": "struct Origin",
          "name": "origin",
          "type": "tuple"
        }
      ],
      "name": "allowInitializePath",
      "outputs": [
        {
          "internalType": "bool",
          "name": "",
          "type": "bool"
        }
      ],
      "stateMutability": "view",
      "type": "function"
    },
    {
      "inputs": [],
      "name": "decimalConversionRate",
      "outputs": [
        {
          "internalType": "uint256",
          "name": "",
          "type": "uint256"
        }
      ],
      "stateMutability": "view",
      "type": "function"
    },
    {
      "inputs": [],
      "name": "endpoint",
      "outputs": [
        {
          "internalType": "contract ILayerZeroEndpointV2",
          "name": "",
          "type": "address"
        }
      ],
      "stateMutability": "view",
      "type": "function"
    },
    {
      "inputs": [
        {
          "components": [
            {
              "internalType": "uint32",
              "name": "srcEid",
              "type": "uint32"
            },
            {
              "internalType": "bytes32",
              "name": "sender",
              "type": "bytes32"
            },
            {
              "internalType": "uint64",
              "name": "nonce",
              "type": "uint64"
            }
          ],
          "internalType": "struct Origin",
          "name": "",
          "type": "tuple"
        },
        {
          "internalType": "bytes",
          "name": "",
          "type": "bytes"
        },
        {
          "internalType": "address",
          "name": "_sender",
          "type": "address"
        }
      ],
      "name": "isComposeMsgSender",
      "outputs": [
        {
          "internalType": "bool",
          "name": "",
          "type": "bool"
        }
      ],
      "stateMutability": "view",
      "type": "function"
    },
    {
      "inputs": [],
      "name": "lzBridge",
      "outputs": [
        {
          "internalType": "contract ILayerZeroBridge",
          "name": "",
          "type": "address"
        }
      ],
      "stateMutability": "view",
      "type": "function"
    },
    {
      "inputs": [
        {
          "components": [
            {
              "internalType": "uint32",
              "name": "srcEid",
              "type": "uint32"
            },
            {
              "internalType": "bytes32",
              "name": "sender",
              "type": "bytes32"
            },
            {
              "internalType": "uint64",
              "name": "nonce",
              "type": "uint64"
            }
          ],
          "internalType": "struct Origin",
          "name": "_origin",
          "type": "tuple"
        },
        {
          "internalType": "bytes32",
          "name": "_guid",
          "type": "bytes32"
        },
        {
          "internalType": "bytes",
          "name": "_message",
          "type": "bytes"
        },
        {
          "internalType": "address",
          "name": "_executor",
          "type": "address"
        },
        {
          "internalType": "bytes",
          "name": "_extraData",
          "type": "bytes"
        }
      ],
      "name": "lzReceive",
      "outputs": [],
      "stateMutability": "payable",
      "type": "function"
    },
    {
      "inputs": [
        {
          "internalType": "uint32",
          "name": "",
          "type": "uint32"
        },
        {
          "internalType": "bytes32",
          "name": "",
          "type": "bytes32"
        }
      ],
      "name": "nextNonce",
      "outputs": [
        {
          "internalType": "uint64",
          "name": "nonce",
          "type": "uint64"
        }
      ],
      "stateMutability": "view",
      "type": "function"
    },
    {
      "inputs": [],
      "name": "oAppVersion",
      "outputs": [
        {
          "internalType": "uint64",
          "name": "senderVersion",
          "type": "uint64"
        },
        {
          "internalType": "uint64",
          "name": "receiverVersion",
          "type": "uint64"
        }
      ],
      "stateMutability": "pure",
      "type": "function"
    },
    {
      "inputs": [],
      "name": "owner",
      "outputs": [
        {
          "internalType": "address",
          "name": "",
          "type": "address"
        }
      ],
      "stateMutability": "view",
      "type": "function"
    },
    {
      "inputs": [
        {
          "internalType": "uint32",
          "name": "eid",
          "type": "uint32"
        }
      ],
      "name": "peers",
      "outputs": [
        {
          "internalType": "bytes32",
          "name": "peer",
          "type": "bytes32"
        }
      ],
      "stateMutability": "view",
      "type": "function"
    },
    {
      "inputs": [
        {
          "internalType": "uint32",
          "name": "_dstEid",
          "type": "uint32"
        },
        {
          "internalType": "uint256",
          "name": "_tokenId",
          "type": "uint256"
        },
        {
          "internalType": "bytes32",
          "name": "_receiver",
          "type": "bytes32"
        },
        {
          "internalType": "uint256",
          "name": "_amountLD",
          "type": "uint256"
        },
        {
          "internalType": "bytes",
          "name": "_options",
          "type": "bytes"
        },
        {
          "internalType": "bool",
          "name": "_payInLzToken",
          "type": "bool"
        }
      ],
      "name": "quoteSend",
      "outputs": [
        {
          "components": [
            {
              "internalType": "uint256",
              "name": "nativeFee",
              "type": "uint256"
            },
            {
              "internalType": "uint256",
              "name": "lzTokenFee",
              "type": "uint256"
            }
          ],
          "internalType": "struct MessagingFee",
          "name": "msgFee",
          "type": "tuple"
        }
      ],
      "stateMutability": "view",
      "type": "function"
    },
    {
      "inputs": [],
      "name": "renounceOwnership",
      "outputs": [],
      "stateMutability": "nonpayable",
      "type": "function"
    },
    {
      "inputs": [
        {
          "internalType": "uint32",
          "name": "_dstEid",
          "type": "uint32"
        },
        {
          "internalType": "uint256",
          "name": "_tokenId",
          "type": "uint256"
        },
        {
          "internalType": "bytes32",
          "name": "_receiver",
          "type": "bytes32"
        },
        {
          "internalType": "uint256",
          "name": "_amountLD",
          "type": "uint256"
        },
        {
          "internalType": "bytes",
          "name": "_options",
          "type": "bytes"
        },
        {
          "components": [
            {
              "internalType": "uint256",
              "name": "nativeFee",
              "type": "uint256"
            },
            {
              "internalType": "uint256",
              "name": "lzTokenFee",
              "type": "uint256"
            }
          ],
          "internalType": "struct MessagingFee",
          "name": "_fee",
          "type": "tuple"
        },
        {
          "internalType": "address",
          "name": "_refundAddress",
          "type": "address"
        }
      ],
      "name": "send",
      "outputs": [],
      "stateMutability": "payable",
      "type": "function"
    },
    {
      "inputs": [
        {
          "internalType": "address",
          "name": "_delegate",
          "type": "address"
        }
      ],
      "name": "setDelegate",
      "outputs": [],
      "stateMutability": "nonpayable",
      "type": "function"
    },
    {
      "inputs": [
        {
          "internalType": "address",
          "name": "_lzBridge",
          "type": "address"
        }
      ],
      "name": "setLzBridge",
      "outputs": [],
      "stateMutability": "nonpayable",
      "type": "function"
    },
    {
      "inputs": [
        {
          "internalType": "uint32",
          "name": "_eid",
          "type": "uint32"
        },
        {
          "internalType": "bytes32",
          "name": "_peer",
          "type": "bytes32"
        }
      ],
      "name": "setPeer",
      "outputs": [],
      "stateMutability": "nonpayable",
      "type": "function"
    },
    {
      "inputs": [],
      "name": "sharedDecimals",
      "outputs": [
        {
          "internalType": "uint8",
          "name": "",
          "type": "uint8"
        }
      ],
      "stateMutability": "view",
      "type": "function"
    },
    {
      "inputs": [
        {
          "internalType": "address",
          "name": "newOwner",
          "type": "address"
        }
      ],
      "name": "transferOwnership",
      "outputs": [],
      "stateMutability": "nonpayable",
      "type": "function"
    }
  ],
  "transactionHash": "0xbee5cc71f915a841b9deec2e86b57adabd7905f7710f87b6e0c1fee3cb2acc40",
  "args": [
    18,
    "0x1a44076050125825900e736c501f859c50fE728c",
    "0x911590f19b4587367D4aa6E70ff57740AE480973"
  ],
  "numDeployments": 2,
  "solcInputHash": "d3339cc2656e0c796a54a43bcffe1347",
  "bytecode": "0x60c0346200025c57601f6200160a38819003918201601f1916830192916000916001600160401b0391908286118587101762000248578160609286926040988952833981010312620002445782519260ff8416809403620002405784620000696020830162000261565b916001600160a01b0391829162000081910162000261565b16918215620002285784546001600160a01b0319811684178655839083167f8be0079c531659141344cd1fd0a4f28419497f9722a3daafe3b4186f6b6457e08780a3169081608052813b156200022457839291602484928851958693849263ca5eb5e160e01b845260048401525af180156200021a57620001f5575b50509060068110620001b1576005190160ff81116200019d5760ff1690604d8211620001895750600a0a60a05251611393908162000277823960805181818161037b0152818161048c015281816104fb015281816106c70152818161092501528181610af60152610c26015260a0518181816102350152818161078a015281816108570152610cc90152f35b634e487b7160e01b81526011600452602490fd5b634e487b7160e01b82526011600452602482fd5b825162461bcd60e51b815260206004820152601660248201527f496e76616c6964206c6f63616c20646563696d616c73000000000000000000006044820152606490fd5b8111620002065783523880620000fd565b634e487b7160e01b82526041600452602482fd5b85513d85823e3d90fd5b8380fd5b8651631e4fbdf760e01b815260048101869052602490fd5b8280fd5b5080fd5b634e487b7160e01b84526041600452602484fd5b600080fd5b51906001600160a01b03821682036200025c5756fe6080604052600436101561001257600080fd5b600060e08135811c90816228f7ff14610fbb57816313137d6514610bb65750806317442b7014610b945780633400288b14610b255780635e280f1114610ae0578063608520a614610ab7578063715018a614610a5d5780637d25a05e14610a3757806382413eac146109d6578063857749b0146109ba578063879f2653146107d45780638da5cb5b146107ad578063963efcaa14610772578063bb0b6a531461073d578063ca5eb5e11461069a578063cd9e2884146101b0578063f2fde38b146101205763ff7bd03d146100e557600080fd5b3461011d57606036600319011261011d57604060209163ffffffff610108611143565b16815260018352205460405190602435148152f35b80fd5b503461011d57602036600319011261011d5761013a611000565b61014261118e565b6001600160a01b0390811690811561019757600054826bffffffffffffffffffffffff60a01b821617600055167f8be0079c531659141344cd1fd0a4f28419497f9722a3daafe3b4186f6b6457e0600080a380f35b604051631e4fbdf760e01b815260048101849052602490fd5b5061010036600319011261011d576101c6611043565b606435906084356001600160401b038111610696576101e9903690600401611016565b90919060403660a31901126106925760e4356001600160a01b038116900361068d576002546001600160a01b0316330361064f5761029e926102b3916102ac6001600160401b0361026c7f000000000000000000000000000000000000000000000000000000000000000061026781610262818d611314565b611334565b611314565b16604051968791604435602435602085019160409194936001600160401b039160608501968552602085015216910152565b03601f1981018752866110d0565b369161110c565b90604051916102c18361109a565b60a435835260c43560208401526040516102da816110b5565b86815286602082015260408051916102f18361109a565b6000835260006020840152015282519081340361063757602084015180610476575b509160809161037793602061032784611156565b96015115159063ffffffff6040519461033f8661107f565b1696878552602085015287604085015260608401528383015260405180809581946302637a4560e41b835260e4359060048401611222565b03917f00000000000000000000000000000000000000000000000000000000000000006001600160a01b03165af1801561046b576103f9575b50604051928352604060208401527f3611bf86b736d7fc6cfc6052915d518d963b2f0fd69a5704f7cae63eb9989a5a60443593806103f3339560408301906111ba565b0390a480f35b60803d8111610464575b61040d81836110d0565b81016080828203126104605760405191610426836110b5565b805183526020810151916001600160401b038316830361045c5760406104539281946020870152016111fa565b910152386103b0565b8780fd5b8580fd5b503d610403565b6040513d87823e3d90fd5b60405163393f876560e21b8152906020826004817f00000000000000000000000000000000000000000000000000000000000000006001600160a01b03165afa91821561062c5789926105f0575b506001600160a01b038216156105de5788806105799260405160208101916323b872dd60e01b835233602483015260018060a01b037f00000000000000000000000000000000000000000000000000000000000000001660448301526064820152606481526105328161107f565b5190826001600160a01b0387165af13d156105d6573d90610552826110f1565b9161056060405193846110d0565b82523d8b602084013e5b6001600160a01b0384166112b1565b80519081151591826105af575b50501561031357604051635274afe760e01b81526001600160a01b039091166004820152602490fd5b81925090602091810103126105d25760206105ca91016112a4565b153880610586565b8880fd5b60609061056a565b6040516329b99a9560e11b8152600490fd5b9091506020813d602011610624575b8161060c602093836110d0565b810103126105d25761061d90611290565b90386104c4565b3d91506105ff565b6040513d8b823e3d90fd5b6040516304fb820960e51b8152346004820152602490fd5b60405162461bcd60e51b815260206004820152601660248201527543616c6c6572206973206e6f74206c7a42726964676560501b6044820152606490fd5b600080fd5b8480fd5b8380fd5b503461011d57602036600319011261011d57806106b5611000565b6106bd61118e565b6001600160a01b037f000000000000000000000000000000000000000000000000000000000000000081169190823b15610738576024849283604051958694859363ca5eb5e160e01b85521660048401525af1801561072d5761071d5750f35b61072690611056565b61011d5780f35b6040513d84823e3d90fd5b505050fd5b503461011d57602036600319011261011d57604060209163ffffffff610761611043565b168152600183522054604051908152f35b503461011d578060031936011261011d5760206040517f00000000000000000000000000000000000000000000000000000000000000008152f35b503461011d578060031936011261011d57546040516001600160a01b039091168152602090f35b503461011d5760c036600319011261011d576107ee611043565b6001600160401b0360843581811161069657366023820112156106965761081f90369060248160040135910161110c565b60a4359283151580940361069257610921936040926108b66108c48551966108468861109a565b6000885260006020809901526108867f00000000000000000000000000000000000000000000000000000000000000006102678161026281606435611314565b1686519283916044356024358b85019160409194936001600160401b039160608501968552602085015216910152565b03601f1981018352826110d0565b60008686516108d28161109a565b82815201526108e084611156565b63ffffffff8651956108f18761107f565b168552868501528484015260608301526080820152815180948192631bb8518b60e31b8352309060048401611222565b03817f00000000000000000000000000000000000000000000000000000000000000006001600160a01b03165afa9182156109af57839261096f575b60408051845181528385015181850152f35b90915060403d6040116109a8575b61098781836110d0565b81019260408285031261011d57506040926109a1916111fa565b903861095d565b503d61097d565b6040513d85823e3d90fd5b503461011d578060031936011261011d57602060405160068152f35b503461011d57366003190160a08112610a335760601361011d576064356001600160401b038111610a3357610a0f903690600401611016565b50506084356001600160a01b0381169081900361068d576020906040519030148152f35b5080fd5b503461011d57604036600319011261011d57602090610a54611043565b50604051908152f35b503461011d578060031936011261011d57610a7661118e565b600080546001600160a01b0319811682556001600160a01b03167f8be0079c531659141344cd1fd0a4f28419497f9722a3daafe3b4186f6b6457e08280a380f35b503461011d578060031936011261011d576002546040516001600160a01b039091168152602090f35b503461011d578060031936011261011d576040517f00000000000000000000000000000000000000000000000000000000000000006001600160a01b03168152602090f35b503461011d57604036600319011261011d577f238399d427b947898edb290f5ff0f9109849b1c3ba196a42e35f00c50a54b98b610b60611043565b60243590610b6c61118e565b63ffffffff16808452600160209081526040808620849055805192835290820192909252a180f35b503461011d578060031936011261011d57604080516001815260026020820152f35b90503660031901818112610fb757606013610a33576001600160401b039060843582811161069657610bec903690600401611016565b926001600160a01b0360a4358181169491939290859003610e385760c43581811161045c57610c1f903690600401611016565b94909133827f00000000000000000000000000000000000000000000000000000000000000001603610f9f57610c5b610c56611143565b611156565b97602435809903610f6e5785606091810103126105d257604085013593818516809503610ea357602481846002541660405192838092637bdc60d960e01b82528b3560048301525afa928315610e98578b93610ea7575b505050610cee8260808160408501511693015116947f000000000000000000000000000000000000000000000000000000000000000090611334565b94813b15610ea3576040516340c10f1960e01b8152306004820152602481018790528a8160448183875af18015610e9857610e81575b5060405163095ea7b360e01b81526001600160a01b0386166004820152602481018790528a93929091906020908390604490829088905af18015610e7657610e3c575b6020915001351692803b15610a3357818091604460405180948193631ce9f1ef60e01b83528a60048401528960248401525af1801561072d57610e20575b505090837fb1c5dcdaa6817c5e7a30ba444052ffce8d0e18a6d44b7de6046c6286731a73429460c09363ffffffff610ddb611143565b1697604051968795606435875260208701526040860152606085015260a060808501528160a0850152848401378181018301889052601f01601f19168101030190a380f35b610e2c90939293611056565b610e3857908638610da5565b8680fd5b6020823d602011610e6e575b81610e55602093836110d0565b8101031261069657610e686020926112a4565b50610d67565b3d9150610e48565b6040513d86823e3d90fd5b610e8f909a9193929a611056565b98909138610d24565b6040513d8d823e3d90fd5b8980fd5b909180935082813d8311610f67575b610ec081836110d0565b81010312610f635760405192830190811183821017610f4f57610f429160c09160405280518452610ef360208201611290565b6020850152610f0460408201611290565b6040850152610f1560608201611290565b6060850152610f2660808201611290565b6080850152610f3760a082016112a4565b60a0850152016112a4565b60c0820152388080610cb2565b634e487b7160e01b8b52604160045260248bfd5b8a80fd5b503d610eb6565b88610f77611143565b60405163309afaf360e21b815263ffffffff9190911660048201526024810191909152604490fd5b6040516391ac5e4f60e01b8152336004820152602490fd5b8280fd5b823461011d57602036600319011261011d57610fd5611000565b610fdd61118e565b60018060a01b03166bffffffffffffffffffffffff60a01b600254161760025580f35b600435906001600160a01b038216820361068d57565b9181601f8401121561068d578235916001600160401b03831161068d576020838186019501011161068d57565b6004359063ffffffff8216820361068d57565b6001600160401b03811161106957604052565b634e487b7160e01b600052604160045260246000fd5b60a081019081106001600160401b0382111761106957604052565b604081019081106001600160401b0382111761106957604052565b606081019081106001600160401b0382111761106957604052565b90601f801991011681019081106001600160401b0382111761106957604052565b6001600160401b03811161106957601f01601f191660200190565b929192611118826110f1565b9161112660405193846110d0565b82948184528183011161068d578281602093846000960137010152565b60043563ffffffff8116810361068d5790565b63ffffffff16806000526001602052604060002054908115611176575090565b6024906040519063f6ff4fb760e01b82526004820152fd5b6000546001600160a01b031633036111a257565b60405163118cdaa760e01b8152336004820152602490fd5b919082519283825260005b8481106111e6575050826000602080949584010152601f8019910116010190565b6020818301810151848301820152016111c5565b919082604091031261068d576040516112128161109a565b6020808294805184520151910152565b906020909392936040835263ffffffff81511660408401528181015160608401526080611276611260604084015160a08488015260e08701906111ba565b6060840151868203603f190160a08801526111ba565b910151151560c08401526001600160a01b03909416910152565b51906001600160a01b038216820361068d57565b5190811515820361068d57565b906112d857508051156112c657805190602001fd5b604051630a12f52160e11b8152600490fd5b8151158061130b575b6112e9575090565b604051639996b31560e01b81526001600160a01b039091166004820152602490fd5b50803b156112e1565b811561131e570490565b634e487b7160e01b600052601260045260246000fd5b8181029291811591840414171561134757565b634e487b7160e01b600052601160045260246000fdfea2646970667358221220f726977727351daa1cfb485b7bff761674e03932c822b2760ebeaed34afc36df64736f6c63430008140033",
  "devdoc": {
    "errors": {
      "AddressEmptyCode(address)": [
        {
          "details": "There's no code at `target` (it is not a contract)."
        }
      ],
      "AddressInsufficientBalance(address)": [
        {
          "details": "The ETH balance of the account is not enough to perform the operation."
        }
      ],
      "FailedInnerCall()": [
        {
          "details": "A call to an address target failed. The target may have reverted."
        }
      ],
      "OwnableInvalidOwner(address)": [
        {
          "details": "The owner is not a valid owner account. (eg. `address(0)`)"
        }
      ],
      "OwnableUnauthorizedAccount(address)": [
        {
          "details": "The caller account is not authorized to perform an operation."
        }
      ],
      "SafeERC20FailedOperation(address)": [
        {
          "details": "An operation with an ERC20 token failed."
        }
      ]
    },
    "kind": "dev",
    "methods": {
      "allowInitializePath((uint32,bytes32,uint64))": {
        "details": "This indicates to the endpoint that the OApp has enabled msgs for this particular path to be received.This defaults to assuming if a peer has been set, its initialized. Can be overridden by the OApp if there is other logic to determine this.",
        "params": {
          "origin": "The origin information containing the source endpoint and sender address."
        },
        "returns": {
          "_0": "Whether the path has been initialized."
        }
      },
      "isComposeMsgSender((uint32,bytes32,uint64),bytes,address)": {
        "details": "_origin The origin information containing the source endpoint and sender address.  - srcEid: The source chain endpoint ID.  - sender: The sender address on the src chain.  - nonce: The nonce of the message._message The lzReceive payload.Applications can optionally choose to implement separate composeMsg senders that are NOT the bridging layer.The default sender IS the OAppReceiver implementer.",
        "params": {
          "_sender": "The sender address."
        },
        "returns": {
          "_0": "isSender Is a valid sender."
        }
      },
      "lzReceive((uint32,bytes32,uint64),bytes32,bytes,address,bytes)": {
        "details": "Entry point for receiving messages or packets from the endpoint.Entry point for receiving msg/packet from the LayerZero endpoint.",
        "params": {
          "_executor": "The address of the executor for the received message.",
          "_extraData": "Additional arbitrary data provided by the corresponding executor.",
          "_guid": "The unique identifier for the received LayerZero message.",
          "_message": "The payload of the received message.",
          "_origin": "The origin information containing the source endpoint and sender address.  - srcEid: The source chain endpoint ID.  - sender: The sender address on the src chain.  - nonce: The nonce of the message."
        }
      },
      "nextNonce(uint32,bytes32)": {
        "details": "_srcEid The source endpoint ID._sender The sender address.The path nonce starts from 1. If 0 is returned it means that there is NO nonce ordered enforcement.Is required by the off-chain executor to determine the OApp expects msg execution is ordered.This is also enforced by the OApp.By default this is NOT enabled. ie. nextNonce is hardcoded to return 0.",
        "returns": {
          "nonce": "The next nonce."
        }
      },
      "oAppVersion()": {
        "returns": {
          "receiverVersion": "The version of the OAppReceiver.sol implementation.",
          "senderVersion": "The version of the OAppSender.sol implementation."
        }
      },
      "owner()": {
        "details": "Returns the address of the current owner."
      },
      "quoteSend(uint32,uint256,bytes32,uint256,bytes,bool)": {
        "details": "MessagingFee: LayerZero msg fee  - nativeFee: The native fee.  - lzTokenFee: The lzToken fee.",
        "params": {
          "_amountLD": "Amount to bridge in local decimals",
          "_dstEid": "The destination endpoint ID.",
          "_options": "Additional options for the message.",
          "_payInLzToken": "Flag indicating whether the caller is paying in the LZ token.",
          "_receiver": "The address of receiver on destination",
          "_tokenId": "The id of the bridge token that is involved in the transaction"
        },
        "returns": {
          "msgFee": "The calculated LayerZero messaging fee from the send() operation."
        }
      },
      "renounceOwnership()": {
        "details": "Leaves the contract without owner. It will not be possible to call `onlyOwner` functions. Can only be called by the current owner. NOTE: Renouncing ownership will leave the contract without an owner, thereby disabling any functionality that is only available to the owner."
      },
      "send(uint32,uint256,bytes32,uint256,bytes,(uint256,uint256),address)": {
        "params": {
          "_amountLD": "Amount to bridge in local decimals",
          "_dstEid": "Destination chain's endpoint ID.",
          "_fee": "The calculated fee for the send() operation.      - nativeFee: The native fee.      - lzTokenFee: The lzToken fee.",
          "_options": "Message execution options (e.g., for sending gas to destination).",
          "_receiver": "The receiver of token.",
          "_refundAddress": "The address to receive any excess funds.",
          "_tokenId": "The id of the bridge token that is involved in the transaction"
        }
      },
      "setDelegate(address)": {
        "details": "Only the owner/admin of the OApp can call this function.Provides the ability for a delegate to set configs, on behalf of the OApp, directly on the Endpoint contract.",
        "params": {
          "_delegate": "The address of the delegate to be set."
        }
      },
      "setPeer(uint32,bytes32)": {
        "details": "Only the owner/admin of the OApp can call this function.Indicates that the peer is trusted to send LayerZero messages to this OApp.Set this to bytes32(0) to remove the peer address.Peer is a bytes32 to accommodate non-evm chains.",
        "params": {
          "_eid": "The endpoint ID.",
          "_peer": "The address of the peer to be associated with the corresponding endpoint."
        }
      },
      "sharedDecimals()": {
        "details": "Retrieves the shared decimals of the OFT.Sets an implicit cap on the amount of tokens, over uint64.max() will need some sort of outbound cap / totalSupply cap Lowest common decimal denominator between chains. Defaults to 6 decimal places to provide up to 18,446,744,073,709.551615 units (max uint64). For tokens exceeding this totalSupply(), they will need to override the sharedDecimals function with something smaller. ie. 4 sharedDecimals would be 1,844,674,407,370,955.1615",
        "returns": {
          "_0": "The shared decimals of the OFT."
        }
      },
      "transferOwnership(address)": {
        "details": "Transfers ownership of the contract to a new account (`newOwner`). Can only be called by the current owner."
      }
    },
    "version": 1
  },
  "userdoc": {
    "kind": "user",
    "methods": {
      "allowInitializePath((uint32,bytes32,uint64))": {
        "notice": "Checks if the path initialization is allowed based on the provided origin."
      },
      "endpoint()": {
        "notice": "Retrieves the LayerZero endpoint associated with the OApp."
      },
      "isComposeMsgSender((uint32,bytes32,uint64),bytes,address)": {
        "notice": "Indicates whether an address is an approved composeMsg sender to the Endpoint."
      },
      "nextNonce(uint32,bytes32)": {
        "notice": "Retrieves the next nonce for a given source endpoint and sender address."
      },
      "oAppVersion()": {
        "notice": "Retrieves the OApp version information."
      },
      "peers(uint32)": {
        "notice": "Retrieves the peer (OApp) associated with a corresponding endpoint."
      },
      "quoteSend(uint32,uint256,bytes32,uint256,bytes,bool)": {
        "notice": "Provides a quote for the send() operation."
      },
      "send(uint32,uint256,bytes32,uint256,bytes,(uint256,uint256),address)": {
        "notice": "Sends a message from the source to destination chain."
      },
      "setDelegate(address)": {
        "notice": "Sets the delegate address for the OApp."
      },
      "setPeer(uint32,bytes32)": {
        "notice": "Sets the peer address (OApp instance) for a corresponding endpoint."
      }
    },
    "version": 1
  },
  "storageLayout": {
    "storage": [
      {
        "astId": 2754,
        "contract": "contracts/MetaOApp.sol:MetaOApp",
        "label": "_owner",
        "offset": 0,
        "slot": "0",
        "type": "t_address"
      },
      {
        "astId": 64,
        "contract": "contracts/MetaOApp.sol:MetaOApp",
        "label": "peers",
        "offset": 0,
        "slot": "1",
        "type": "t_mapping(t_uint32,t_bytes32)"
      },
      {
        "astId": 7949,
        "contract": "contracts/MetaOApp.sol:MetaOApp",
        "label": "lzBridge",
        "offset": 0,
        "slot": "2",
        "type": "t_contract(ILayerZeroBridge)10344"
      }
    ],
    "types": {
      "t_address": {
        "encoding": "inplace",
        "label": "address",
        "numberOfBytes": "20"
      },
      "t_bytes32": {
        "encoding": "inplace",
        "label": "bytes32",
        "numberOfBytes": "32"
      },
      "t_contract(ILayerZeroBridge)10344": {
        "encoding": "inplace",
        "label": "contract ILayerZeroBridge",
        "numberOfBytes": "20"
      },
      "t_mapping(t_uint32,t_bytes32)": {
        "encoding": "mapping",
        "key": "t_uint32",
        "label": "mapping(uint32 => bytes32)",
        "numberOfBytes": "32",
        "value": "t_bytes32"
      },
      "t_uint32": {
        "encoding": "inplace",
        "label": "uint32",
        "numberOfBytes": "4"
      }
    }
  }
}